{
  "_format": "hh-sol-artifact-1",
  "contractName": "Calc",
  "sourceName": "contracts/Calc.sol",
  "abi": [
    {
      "inputs": [],
      "name": "counter",
      "outputs": [
        {
          "internalType": "int256",
          "name": "",
          "type": "int256"
        }
      ],
      "stateMutability": "view",
      "type": "function"
    },
    {
      "inputs": [],
      "name": "decrease",
      "outputs": [],
      "stateMutability": "nonpayable",
      "type": "function"
    },
    {
      "inputs": [],
      "name": "increase",
      "outputs": [],
      "stateMutability": "nonpayable",
      "type": "function"
    },
    {
      "inputs": [],
      "name": "reset",
      "outputs": [],
      "stateMutability": "nonpayable",
      "type": "function"
    }
  ],
  "bytecode": "0x60806040526000805534801561001457600080fd5b5061012e806100246000396000f3fe6080604052348015600f57600080fd5b506004361060465760003560e01c806361bc221a14604b578063d732d955146065578063d826f88f14606d578063e8927fbc146075575b600080fd5b605360005481565b60405190815260200160405180910390f35b606b607b565b005b606b60008055565b606b608d565b600054608760018260af565b60005550565b600054608760018260d3565b634e487b7160e01b600052601160045260246000fd5b818103600083128015838313168383128216171560cc5760cc6099565b5092915050565b808201828112600083128015821682158216171560f05760f06099565b50509291505056fea26469706673582212208057aee89a7e6500ba5f51ad7cef33efde4a6d5181ff6556021b04e957672c2664736f6c63430008110033",
  "linkReferences": {},
  "deployedLinkReferences": {}
}