{"contracts/Calc.sol":{"Calc":{"abi":[{"inputs":[],"name":"counter","outputs":[{"internalType":"int256","name":"","type":"int256"}],"stateMutability":"view","type":"function"},{"inputs":[],"name":"decrease","outputs":[],"stateMutability":"nonpayable","type":"function"},{"inputs":[],"name":"increase","outputs":[],"stateMutability":"nonpayable","type":"function"},{"inputs":[],"name":"reset","outputs":[],"stateMutability":"nonpayable","type":"function"}],"evm":{"bytecode":{"linkReferences":{},"object":"60806040526000805534801561001457600080fd5b5061012e806100246000396000f3fe6080604052348015600f57600080fd5b506004361060465760003560e01c806361bc221a14604b578063d732d955146065578063d826f88f14606d578063e8927fbc146075575b600080fd5b605360005481565b60405190815260200160405180910390f35b606b607b565b005b606b60008055565b606b608d565b600054608760018260af565b60005550565b600054608760018260d3565b634e487b7160e01b600052601160045260246000fd5b818103600083128015838313168383128216171560cc5760cc6099565b5092915050565b808201828112600083128015821682158216171560f05760f06099565b50509291505056fea26469706673582212209b338bc3ae5bddbe8880b4dcc3b359f806409ba53abd39c4657a25c97f36b32964736f6c63430008110033","opcodes":"PUSH1 0x80 PUSH1 0x40 MSTORE PUSH1 0x0 DUP1 SSTORE CALLVALUE DUP1 ISZERO PUSH2 0x14 JUMPI PUSH1 0x0 DUP1 REVERT JUMPDEST POP PUSH2 0x12E DUP1 PUSH2 0x24 PUSH1 0x0 CODECOPY PUSH1 0x0 RETURN INVALID PUSH1 0x80 PUSH1 0x40 MSTORE CALLVALUE DUP1 ISZERO PUSH1 0xF JUMPI PUSH1 0x0 DUP1 REVERT JUMPDEST POP PUSH1 0x4 CALLDATASIZE LT PUSH1 0x46 JUMPI PUSH1 0x0 CALLDATALOAD PUSH1 0xE0 SHR DUP1 PUSH4 0x61BC221A EQ PUSH1 0x4B JUMPI DUP1 PUSH4 0xD732D955 EQ PUSH1 0x65 JUMPI DUP1 PUSH4 0xD826F88F EQ PUSH1 0x6D JUMPI DUP1 PUSH4 0xE8927FBC EQ PUSH1 0x75 JUMPI JUMPDEST PUSH1 0x0 DUP1 REVERT JUMPDEST PUSH1 0x53 PUSH1 0x0 SLOAD DUP2 JUMP JUMPDEST PUSH1 0x40 MLOAD SWAP1 DUP2 MSTORE PUSH1 0x20 ADD PUSH1 0x40 MLOAD DUP1 SWAP2 SUB SWAP1 RETURN JUMPDEST PUSH1 0x6B PUSH1 0x7B JUMP JUMPDEST STOP JUMPDEST PUSH1 0x6B PUSH1 0x0 DUP1 SSTORE JUMP JUMPDEST PUSH1 0x6B PUSH1 0x8D JUMP JUMPDEST PUSH1 0x0 SLOAD PUSH1 0x87 PUSH1 0x1 DUP3 PUSH1 0xAF JUMP JUMPDEST PUSH1 0x0 SSTORE POP JUMP JUMPDEST PUSH1 0x0 SLOAD PUSH1 0x87 PUSH1 0x1 DUP3 PUSH1 0xD3 JUMP JUMPDEST PUSH4 0x4E487B71 PUSH1 0xE0 SHL PUSH1 0x0 MSTORE PUSH1 0x11 PUSH1 0x4 MSTORE PUSH1 0x24 PUSH1 0x0 REVERT JUMPDEST DUP2 DUP2 SUB PUSH1 0x0 DUP4 SLT DUP1 ISZERO DUP4 DUP4 SGT AND DUP4 DUP4 SLT DUP3 AND OR ISZERO PUSH1 0xCC JUMPI PUSH1 0xCC PUSH1 0x99 JUMP JUMPDEST POP SWAP3 SWAP2 POP POP JUMP JUMPDEST DUP1 DUP3 ADD DUP3 DUP2 SLT PUSH1 0x0 DUP4 SLT DUP1 ISZERO DUP3 AND DUP3 ISZERO DUP3 AND OR ISZERO PUSH1 0xF0 JUMPI PUSH1 0xF0 PUSH1 0x99 JUMP JUMPDEST POP POP SWAP3 SWAP2 POP POP JUMP INVALID LOG2 PUSH5 0x6970667358 0x22 SLT KECCAK256 SWAP12 CALLER DUP12 0xC3 0xAE JUMPDEST 0xDD 0xBE DUP9 DUP1 0xB4 0xDC 0xC3 0xB3 MSIZE 0xF8 MOD BLOCKHASH SWAP12 0xA5 GASPRICE 0xBD CODECOPY 0xC4 PUSH6 0x7A25C97F36B3 0x29 PUSH5 0x736F6C6343 STOP ADDMOD GT STOP CALLER "},"methodIdentifiers":{"counter()":"61bc221a","decrease()":"d732d955","increase()":"e8927fbc","reset()":"d826f88f"}}}}}